:020000040000FA
:100000000C9462000C948A000C948A000C948A0070
:100010000C948A000C948A000C948A000C948A0038
:100020000C948A000C948A000C948A000C948A0028
:100030000C948A000C948A000C948A000C948A0018
:100040000C945E040C948A000C94CE040C94A804C6
:100050000C948A000C948A000C948A000C948A00F8
:100060000C948A000C948A000000000024002700F1
:100070002A0000000000250028002B0000000000DE
:1000800023002600290004040404040404040202DA
:100090000202020203030303030301020408102007
:1000A0004080010204081020010204081020000012
:1000B0000008000201000003040700000000000027
:1000C0000000000511241FBECFEFD8E0DEBFCDBF7A
:1000D00011E0A0E0B1E0ECEAFDE002C005900D9275
:1000E000A035B107D9F722E0A0E5B1E001C01D922B
:1000F000A231B207E1F710E0C2E6D0E004C02197D8
:10010000FE010E94CE06C136D107C9F70E944B05F9
:100110000C94D4060C94000080E480937C008091C1
:100120007A00806480937A0080917A0086FDFCCF0B
:1001300080917800909179000895833081F028F4BF
:10014000813099F08230A9F008958730A9F0883085
:10015000C9F08430B1F4809180008F7D03C080911C
:1001600080008F7780938000089584B58F7784BD59
:10017000089584B58F7DFBCF8091B0008F778093F9
:10018000B00008958091B0008F7DF9CFCF93DF93B9
:10019000282F30E0F901E255FF4F8491F901E6562E
:1001A000FF4FD491F901EA57FF4FC491CC23A1F03E
:1001B00081110E949D00EC2FF0E0EE0FFF1FE4582C
:1001C000FF4FA591B491EC91ED2381E090E009F40B
:1001D00080E0DF91CF91089580E090E0FACF1F9307
:1001E000CF93DF93282F30E0F901E255FF4F849140
:1001F000F901E656FF4FD491F901EA57FF4FC49138
:10020000CC23A9F0162F81110E949D00EC2FF0E065
:10021000EE0FFF1FEE58FF4FA591B4918FB7F894E2
:10022000EC91111108C0D095DE23DC938FBFDF91D4
:10023000CF911F910895DE2BF8CFCF93DF9390E0FD
:10024000FC01E656FF4F24918A579F4FFC01849191
:100250008823D1F090E0880F991FFC01E859FF4FE7
:10026000A591B491FC01EE58FF4FC591D491611155
:100270000EC09FB7F8948C91E22FE0958E238C935B
:100280002881E223E8839FBFDF91CF9108958FB744
:10029000F894EC91E22BEC938FBFF6CF3FB7F89434
:1002A0008091590190915A01A0915B01B0915C013C
:1002B00026B5A89B05C02F3F19F00196A11DB11DC1
:1002C0003FBFBA2FA92F982F8827BC01CD01620FFD
:1002D000711D811D911D42E0660F771F881F991FB8
:1002E0004A95D1F70895AF92BF92CF92DF92EF92E5
:1002F000FF920F931F93CF93DF936C017B018B01D0
:10030000040F151FEB015E01AE18BF08C017D1071F
:1003100059F06991D601ED91FC910190F081E02DA9
:10032000C6010995892B79F7C501DF91CF911F91FE
:100330000F91FF90EF90DF90CF90BF90AF90089516
:10034000FC01538D448D252F30E0842F90E0821BDB
:10035000930B541710F0CF96089501970895FC0160
:10036000918D828D981761F0A28DAE0FBF2FB11DB8
:100370005D968C91928D9F5F9F73928F90E0089510
:100380008FEF9FEF0895FC01918D828D981731F0CA
:10039000828DE80FF11D858D90E008958FEF9FEF1E
:1003A0000895FC01918D228D892F90E0805C9F4FF4
:1003B000821B91098F73992708958DE591E00E9422
:1003C000D10121E0892B09F420E0822F089580E0FB
:1003D00090E0892B29F00E94DD0181110C9400002E
:1003E0000895FC01A48DA80FB92FB11DA35ABF4FCA
:1003F0002C91848D90E001968F739927848FA68924
:10040000B7892C93A089B1898C91837080648C9377
:10041000938D848D981306C00288F389E02D808126
:100420008F7D80830895EF92FF920F931F93CF9358
:10043000DF93EC0181E0888F9B8D8C8D98131AC01F
:10044000E889F989808185FF15C09FB7F894EE8906
:10045000FF896083E889F989808183708064808363
:100460009FBF81E090E0DF91CF911F910F91FF90AE
:10047000EF900895F62E0B8D10E00F5F1F4F0F7356
:100480001127E02E8C8D8E110CC00FB607FCFACF11
:10049000E889F989808185FFF5CFCE010E94F101BD
:1004A000F1CFEB8DEC0FFD2FF11DE35AFF4FF082E2
:1004B0009FB7F8940B8FEA89FB8980818062CFCF48
:1004C000CF93DF93EC01888D8823B9F0AA89BB898B
:1004D000E889F9898C9185FD03C0808186FD0DC076
:1004E0000FB607FCF7CF8C9185FFF2CF808185FF97
:1004F000EDCFCE010E94F101E9CFDF91CF910895B8
:10050000089590E080E008958F929F92AF92BF92FD
:100510000F931F93CF93DF93CDB7DEB7A1970FB69D
:10052000F894DEBF0FBECDBF19A2423008F44AE0F6
:100530008E010F5D1F4F842E912CB12CA12CA50193
:1005400094010E94AC06E62FB901CA01EA3044F5D5
:10055000E05DD801EE938D01232B242B252B79F719
:1005600090E080E0109769F0FD0101900020E9F72C
:100570003197AF014A1B5B0BBD018AEF91E00E94EE
:100580007301A1960FB6F894DEBF0FBECDBFDF9109
:10059000CF911F910F91BF90AF909F908F90089532
:1005A000E95CD7CFFC0101900020E9F73197AF015A
:1005B000481B590BBC018AEF91E00C947301CF9357
:1005C000DF93EC0160E08E810E94EF0061E08E819C
:1005D0000E94EF0060E08E810E94EF008BE891E0C6
:1005E0000197F1F7DF91CF910895CF92DF92EF92CB
:1005F000FF920F931F93CF93DF936C017C0187E0F1
:10060000E80EF11CD0E0C0E0062F10E0B8010C2E7F
:1006100002C0759567950A94E2F76170F7018191C0
:100620007F010E94EF002196C430D10579F7C60101
:10063000DF91CF911F910F91FF90EF90DF90CF90BE
:100640000C94DF02CF92DF92EF92FF920F931F93F1
:10065000CF93DF93EC01F62E642F8C810E94EF0084
:100660008D818F3F19F060E00E94EF000F2D10E0A8
:100670008F8584FF25C06E0187E0C80ED11CF12C48
:10068000E12CB8010E2C02C0759567950A94E2F72B
:100690006170F60181916F010E94EF00FFEFEF1A88
:1006A000FF0A88E0E816F10461F7CE01DF91CF91EF
:1006B0001F910F91FF90EF90DF90CF900C94DF028D
:1006C000B80184E0759567958A95E1F7CE010E949F
:1006D000F5026F2DCE01DF91CF911F910F91FF9009
:1006E000EF90DF90CF900C94F50240E0682F8AEFF6
:1006F00091E00C942203CF93DF93613029F0909125
:10070000090298609093090260930D0210920E0204
:1007100090E490930F0280931002805C809311020A
:1007200061E08091FE010E941D018091FF018F3FD9
:1007300019F061E00E941D0161E0809100020E94B9
:100740001D01CAEFD1E09E012A5F3140809109026C
:1007500084FD0BC084E090E021962817390744F40B
:1007600061E08E810E941D01EECF88E090E0F4CF21
:100770008BE39DE00197F1F760E08091FE010E941C
:10078000EF0060E0809100020E94EF008091FF0185
:100790008F3F19F060E00E94EF008091090284FD14
:1007A00039C063E08AEF91E00E94F502CBE4D6E421
:1007B000CE010197F1F763E08AEF91E00E94F50224
:1007C0002197F1F763E08AEF91E00E94F50283E55B
:1007D00092E00197F1F762E08AEF91E00E94F50262
:1007E0008091090280620E94750384E080930A026E
:1007F0008CE00E94750381E00E9475038BE39FE10A
:100800000197F1F782E080930B0286E0DF91CF91B0
:100810000C94750380620E9475038BE496E4019743
:10082000F1F78091090280620E94750383E592E0EE
:100830000197F1F78091090280620E947503D0CF81
:1008400090910D02691710F06FEF690FE62FF0E03D
:10085000E650FE4F9489890F80680C94750341E03F
:100860000E94220381E090E00895CF92DF92EF9200
:10087000FF926C01990FEE08FF08F7FE16C041E0E9
:100880006DE28AEF91E00E94220366277727CB0171
:100890006C197D098E099F094AE00E948402019625
:1008A000FF90EF90DF90CF9008954AE0C701B60126
:1008B000FF90EF90DF90CF900C9484021F920F92E4
:1008C0000FB60F9211242F933F938F939F93AF9363
:1008D000BF938091550190915601A0915701B0911D
:1008E00058013091540123E0230F2D3758F501961C
:1008F000A11DB11D20935401809355019093560181
:10090000A0935701B09358018091590190915A01D9
:10091000A0915B01B0915C010196A11DB11D809376
:10092000590190935A01A0935B01B0935C01BF9170
:10093000AF919F918F913F912F910F900FBE0F908C
:100940001F90189526E8230F0296A11DB11DD2CF46
:100950001F920F920FB60F9211242F933F934F9334
:100960005F936F937F938F939F93AF93BF93EF9317
:10097000FF938DE591E00E94F101FF91EF91BF910E
:10098000AF919F918F917F916F915F914F913F9127
:100990002F910F900FBE0F901F9018951F920F92DE
:1009A0000FB60F9211242F938F939F93EF93FF9382
:1009B000E0916D01F0916E018081E0917301F09101
:1009C000740182FD1BC09081809176018F5F8F73CF
:1009D00020917701821741F0E0917601F0E0E35A2F
:1009E000FE4F958F80937601FF91EF919F918F91AC
:1009F0002F910F900FBE0F901F9018958081F4CF0C
:100A0000EDE5F1E01382128288EE93E0A0E0B0E021
:100A100084839583A683B78384E091E09183808368
:100A200085EC90E09587848784EC90E097878687B3
:100A300080EC90E0918B808B81EC90E0938B828BAB
:100A400082EC90E0958B848B86EC90E0978B868B84
:100A5000118E128E138E148EEAEFF1E01382128241
:100A600086E191E0918380838DE084838FEF85839D
:100A70008CE086838BE087838AE0808789E08187AA
:100A800088E082871386148615861686178661E0AD
:100A900080E10C947B03789484B5826084BD84B536
:100AA000816084BD85B5826085BD85B5816085BD69
:100AB00080916E00816080936E0010928100809121
:100AC00081008260809381008091810081608093A9
:100AD0008100809180008160809380008091B100CE
:100AE00084608093B1008091B00081608093B000F9
:100AF00080917A00846080937A0080917A0082608D
:100B000080937A0080917A00816080937A0080914E
:100B10007A00806880937A001092C100E0916D01A4
:100B2000F0916E0182E08083E0916901F0916A01A9
:100B30001082E0916B01F0916C018FEC8083109238
:100B40007501E0917101F091720186E08083E0917E
:100B50006F01F0917001808180618083E0916F016D
:100B6000F0917001808188608083E0916F01F09145
:100B70007001808180688083E0916F01F091700145
:100B800080818F7D808364E084E10E947B0361E04B
:100B900085E00E941D0160E08FE00E941D0160E081
:100BA00084E00E941D0160E083E00E941D0160E07E
:100BB00085E00E94EF0060E080E00E9420048EE16A
:100BC00091E00E94D20261E080E00E94200481E373
:100BD00091E00E94D20280915201909153010E94B3
:100BE000350461E08BE00E94200484E391E00E94E0
:100BF000D20280915001909151010E94350463E02E
:100C000085E00E94200488E391E00E94D202C0E0C7
:100C1000D0E08FE00E94C600019709F04EC084E04A
:100C20000E94C600019709F048C08091520190913E
:100C30005301C2970CF041C061E085E00E94EF00D3
:100C400063E085E00E94200483E491E00E94D202E8
:100C5000809152019091530101969093530180939A
:100C6000520161E080E00E94200481E391E00E9453
:100C7000D20280915201909153010E9435040E944A
:100C80008C002091520130915301C901880F991FA6
:100C9000820F931F909351018093500161E08BE08C
:100CA0000E94200484E391E00E94D20280915001CE
:100CB000909151010E94350411C08FE00E94C6003E
:100CC0000197D9F160E085E00E94EF0063E085E0E4
:100CD0000E94200488E391E00E94D2020E944E010B
:100CE0004B015C0188ECC82ED12CE12CF12C0E9428
:100CF0004E01681979098A099B09683E734081058C
:100D00009105A8F321E0C21AD108E108F10888EEA4
:100D1000880E83E0981EA11CB11CC114D104E1040B
:100D2000F10429F7209709F474CF0E94DD0188238C
:100D300009F46FCF0E9400006CCF83E00E94C600D0
:100D4000019709F0BFCF8091520190915301C29752
:100D5000C29708F0B7CF70CFA1E21A2EAA1BBB1B17
:100D6000FD010DC0AA1FBB1FEE1FFF1FA217B30777
:100D7000E407F50720F0A21BB30BE40BF50B661F8D
:100D8000771F881F991F1A9469F760957095809551
:100D900090959B01AC01BD01CF010895EE0FFF1F9F
:100DA0000590F491E02D0994F894FFCF0000000025
:100DB00013027301A0016002D101AF01C301000061
:100DC00000002F047301810280024D657465726119
:100DD0006E2041697220436572646173004C3D006E
:100DE00052733D004D6F746F723D204F4646004D6B
:0C0DF0006F746F723D204F4E20200000F9
:107E0000112484B714BE81FFF0D085E080938100F7
:107E100082E08093C00088E18093C10086E0809377
:107E2000C20080E18093C4008EE0C9D0259A86E02C
:107E300020E33CEF91E0309385002093840096BBD3
:107E4000B09BFECF1D9AA8958150A9F7CC24DD24C4
:107E500088248394B5E0AB2EA1E19A2EF3E0BF2EE7
:107E6000A2D0813461F49FD0082FAFD0023811F036
:107E7000013811F484E001C083E08DD089C08234E0
:107E800011F484E103C0853419F485E0A6D080C0E4
:107E9000853579F488D0E82EFF2485D0082F10E0AE
:107EA000102F00270E291F29000F111F8ED06801E7
:107EB0006FC0863521F484E090D080E0DECF843638
:107EC00009F040C070D06FD0082F6DD080E0C81688
:107ED00080E7D80618F4F601B7BEE895C0E0D1E017
:107EE00062D089930C17E1F7F0E0CF16F0E7DF06D8
:107EF00018F0F601B7BEE89568D007B600FCFDCFD4
:107F0000A601A0E0B1E02C9130E011968C91119780
:107F100090E0982F8827822B932B1296FA010C0160
:107F200087BEE89511244E5F5F4FF1E0A038BF0790
:107F300051F7F601A7BEE89507B600FCFDCF97BE46
:107F4000E89526C08437B1F42ED02DD0F82E2BD052
:107F50003CD0F601EF2C8F010F5F1F4F84911BD097
:107F6000EA94F801C1F70894C11CD11CFA94CF0C13
:107F7000D11C0EC0853739F428D08EE10CD085E9AC
:107F80000AD08FE07ACF813511F488E018D01DD067
:107F900080E101D065CF982F8091C00085FFFCCF94
:107FA0009093C60008958091C00087FFFCCF809118
:107FB000C00084FD01C0A8958091C6000895E0E648
:107FC000F0E098E1908380830895EDDF803219F02E
:107FD00088E0F5DFFFCF84E1DECF1F93182FE3DFCA
:107FE0001150E9F7F2DF1F91089580E0E8DFEE27F6
:047FF000FF270994CA
:027FFE00040479
:00000001FF
